{
  "contractName": "JobBoard",
  "abi": [
    {
      "inputs": [],
      "payable": false,
      "stateMutability": "nonpayable",
      "type": "constructor"
    },
    {
      "anonymous": false,
      "inputs": [
        {
          "indexed": false,
          "internalType": "address",
          "name": "applicant",
          "type": "address"
        },
        {
          "indexed": false,
          "internalType": "uint256",
          "name": "jobId",
          "type": "uint256"
        }
      ],
      "name": "Apply",
      "type": "event"
    },
    {
      "anonymous": false,
      "inputs": [
        {
          "indexed": true,
          "internalType": "uint256",
          "name": "jobId",
          "type": "uint256"
        },
        {
          "indexed": false,
          "internalType": "address",
          "name": "poster",
          "type": "address"
        },
        {
          "indexed": false,
          "internalType": "string",
          "name": "title",
          "type": "string"
        }
      ],
      "name": "PostJob",
      "type": "event"
    },
    {
      "anonymous": false,
      "inputs": [
        {
          "indexed": true,
          "internalType": "address",
          "name": "seeker",
          "type": "address"
        }
      ],
      "name": "RegisterJobSeeker",
      "type": "event"
    },
    {
      "anonymous": false,
      "inputs": [
        {
          "indexed": true,
          "internalType": "uint256",
          "name": "jobId",
          "type": "uint256"
        },
        {
          "indexed": false,
          "internalType": "address",
          "name": "poster",
          "type": "address"
        },
        {
          "indexed": false,
          "internalType": "string",
          "name": "title",
          "type": "string"
        }
      ],
      "name": "RemoveJob",
      "type": "event"
    },
    {
      "constant": true,
      "inputs": [],
      "name": "jobCount",
      "outputs": [
        {
          "internalType": "uint256",
          "name": "",
          "type": "uint256"
        }
      ],
      "payable": false,
      "stateMutability": "view",
      "type": "function"
    },
    {
      "constant": true,
      "inputs": [
        {
          "internalType": "uint256",
          "name": "",
          "type": "uint256"
        }
      ],
      "name": "jobPostings",
      "outputs": [
        {
          "internalType": "uint256",
          "name": "id",
          "type": "uint256"
        },
        {
          "internalType": "address",
          "name": "poster",
          "type": "address"
        },
        {
          "internalType": "string",
          "name": "title",
          "type": "string"
        },
        {
          "internalType": "string",
          "name": "description",
          "type": "string"
        }
      ],
      "payable": false,
      "stateMutability": "view",
      "type": "function"
    },
    {
      "constant": true,
      "inputs": [
        {
          "internalType": "address",
          "name": "",
          "type": "address"
        }
      ],
      "name": "jobSeekers",
      "outputs": [
        {
          "internalType": "string",
          "name": "linkedIn",
          "type": "string"
        }
      ],
      "payable": false,
      "stateMutability": "view",
      "type": "function"
    },
    {
      "constant": false,
      "inputs": [
        {
          "internalType": "string",
          "name": "_title",
          "type": "string"
        },
        {
          "internalType": "string",
          "name": "_description",
          "type": "string"
        }
      ],
      "name": "postJob",
      "outputs": [],
      "payable": false,
      "stateMutability": "nonpayable",
      "type": "function"
    },
    {
      "constant": false,
      "inputs": [
        {
          "internalType": "uint256",
          "name": "jobId",
          "type": "uint256"
        }
      ],
      "name": "removeJob",
      "outputs": [],
      "payable": false,
      "stateMutability": "nonpayable",
      "type": "function"
    },
    {
      "constant": true,
      "inputs": [
        {
          "internalType": "uint256",
          "name": "jobId",
          "type": "uint256"
        }
      ],
      "name": "getJob",
      "outputs": [
        {
          "internalType": "address",
          "name": "poster",
          "type": "address"
        },
        {
          "internalType": "string",
          "name": "title",
          "type": "string"
        },
        {
          "internalType": "string",
          "name": "description",
          "type": "string"
        }
      ],
      "payable": false,
      "stateMutability": "view",
      "type": "function"
    },
    {
      "constant": true,
      "inputs": [
        {
          "internalType": "uint256",
          "name": "jobId",
          "type": "uint256"
        }
      ],
      "name": "viewApplicantLinkedIns",
      "outputs": [
        {
          "internalType": "address[]",
          "name": "",
          "type": "address[]"
        }
      ],
      "payable": false,
      "stateMutability": "view",
      "type": "function"
    },
    {
      "constant": false,
      "inputs": [
        {
          "internalType": "uint256",
          "name": "jobId",
          "type": "uint256"
        },
        {
          "internalType": "string",
          "name": "_linkedIn",
          "type": "string"
        }
      ],
      "name": "applyToJob",
      "outputs": [],
      "payable": false,
      "stateMutability": "nonpayable",
      "type": "function"
    }
  ],
  "bytecode": "0x608060405234801561001057600080fd5b5060016000819055506113a7806100286000396000f3fe608060405234801561001057600080fd5b50600436106100885760003560e01c80639cb29cbd1161005b5780639cb29cbd14610340578063a01e56761461036e578063bf22c457146104c0578063f6d430681461060657610088565b80633efaea1f1461008d5780634c5d8a0f14610152578063622359b91461017057806381ee3b94146102bd575b600080fd5b610150600480360360408110156100a357600080fd5b8101908080359060200190929190803590602001906401000000008111156100ca57600080fd5b8201836020820111156100dc57600080fd5b803590602001918460018302840111640100000000831117156100fe57600080fd5b91908080601f016020809104026020016040519081016040528093929190818152602001838380828437600081840152601f19601f8201169050808301925050505050505091929192905050506106c3565b005b61015a61088a565b6040518082815260200191505060405180910390f35b61019c6004803603602081101561018657600080fd5b8101908080359060200190929190505050610890565b604051808581526020018473ffffffffffffffffffffffffffffffffffffffff1673ffffffffffffffffffffffffffffffffffffffff1681526020018060200180602001838103835285818151815260200191508051906020019080838360005b838110156102185780820151818401526020810190506101fd565b50505050905090810190601f1680156102455780820380516001836020036101000a031916815260200191505b50838103825284818151815260200191508051906020019080838360005b8381101561027e578082015181840152602081019050610263565b50505050905090810190601f1680156102ab5780820380516001836020036101000a031916815260200191505b50965050505050505060405180910390f35b6102e9600480360360208110156102d357600080fd5b8101908080359060200190929190505050610a10565b6040518080602001828103825283818151815260200191508051906020019060200280838360005b8381101561032c578082015181840152602081019050610311565b505050509050019250505060405180910390f35b61036c6004803603602081101561035657600080fd5b8101908080359060200190929190505050610b24565b005b6104be6004803603604081101561038457600080fd5b81019080803590602001906401000000008111156103a157600080fd5b8201836020820111156103b357600080fd5b803590602001918460018302840111640100000000831117156103d557600080fd5b91908080601f016020809104026020016040519081016040528093929190818152602001838380828437600081840152601f19601f8201169050808301925050505050505091929192908035906020019064010000000081111561043857600080fd5b82018360208201111561044a57600080fd5b8035906020019184600183028401116401000000008311171561046c57600080fd5b91908080601f016020809104026020016040519081016040528093929190818152602001838380828437600081840152601f19601f820116905080830192505050505050509192919290505050610d8f565b005b6104ec600480360360208110156104d657600080fd5b8101908080359060200190929190505050610f11565b604051808473ffffffffffffffffffffffffffffffffffffffff1673ffffffffffffffffffffffffffffffffffffffff1681526020018060200180602001838103835285818151815260200191508051906020019080838360005b83811015610562578082015181840152602081019050610547565b50505050905090810190601f16801561058f5780820380516001836020036101000a031916815260200191505b50838103825284818151815260200191508051906020019080838360005b838110156105c85780820151818401526020810190506105ad565b50505050905090810190601f1680156105f55780820380516001836020036101000a031916815260200191505b509550505050505060405180910390f35b6106486004803603602081101561061c57600080fd5b81019080803573ffffffffffffffffffffffffffffffffffffffff16906020019092919050505061112e565b6040518080602001828103825283818151815260200191508051906020019080838360005b8381101561068857808201518184015260208101905061066d565b50505050905090810190601f1680156106b55780820380516001836020036101000a031916815260200191505b509250505060405180910390f35b600073ffffffffffffffffffffffffffffffffffffffff166001600084815260200190815260200160002060010160009054906101000a900473ffffffffffffffffffffffffffffffffffffffff1673ffffffffffffffffffffffffffffffffffffffff16141561073357600080fd5b600160008381526020019081526020016000206004013390806001815401808255809150509060018203906000526020600020016000909192909190916101000a81548173ffffffffffffffffffffffffffffffffffffffff021916908373ffffffffffffffffffffffffffffffffffffffff16021790555050604051806020016040528082815250600260003373ffffffffffffffffffffffffffffffffffffffff1673ffffffffffffffffffffffffffffffffffffffff16815260200190815260200160002060008201518160000190805190602001906108179291906111e4565b509050507f59470163a7d3423114f115af31707633dd4930abac0f3662fc3c4ef323f39a863383604051808373ffffffffffffffffffffffffffffffffffffffff1673ffffffffffffffffffffffffffffffffffffffff1681526020018281526020019250505060405180910390a15050565b60005481565b60016020528060005260406000206000915090508060000154908060010160009054906101000a900473ffffffffffffffffffffffffffffffffffffffff1690806002018054600181600116156101000203166002900480601f0160208091040260200160405190810160405280929190818152602001828054600181600116156101000203166002900480156109685780601f1061093d57610100808354040283529160200191610968565b820191906000526020600020905b81548152906001019060200180831161094b57829003601f168201915b505050505090806003018054600181600116156101000203166002900480601f016020809104026020016040519081016040528092919081815260200182805460018160011615610100020316600290048015610a065780601f106109db57610100808354040283529160200191610a06565b820191906000526020600020905b8154815290600101906020018083116109e957829003601f168201915b5050505050905084565b6060600073ffffffffffffffffffffffffffffffffffffffff166001600084815260200190815260200160002060010160009054906101000a900473ffffffffffffffffffffffffffffffffffffffff1673ffffffffffffffffffffffffffffffffffffffff161415610a8257600080fd5b60016000838152602001908152602001600020600401805480602002602001604051908101604052809291908181526020018280548015610b1857602002820191906000526020600020905b8160009054906101000a900473ffffffffffffffffffffffffffffffffffffffff1673ffffffffffffffffffffffffffffffffffffffff1681526020019060010190808311610ace575b50505050509050919050565b3373ffffffffffffffffffffffffffffffffffffffff166001600083815260200190815260200160002060010160009054906101000a900473ffffffffffffffffffffffffffffffffffffffff1673ffffffffffffffffffffffffffffffffffffffff1614610b9257600080fd5b6060600160008381526020019081526020016000206002018054600181600116156101000203166002900480601f016020809104026020016040519081016040528092919081815260200182805460018160011615610100020316600290048015610c3e5780601f10610c1357610100808354040283529160200191610c3e565b820191906000526020600020905b815481529060010190602001808311610c2157829003601f168201915b50505050509050600160008381526020019081526020016000206000808201600090556001820160006101000a81549073ffffffffffffffffffffffffffffffffffffffff0219169055600282016000610c989190611264565b600382016000610ca89190611264565b600482016000610cb891906112ac565b5050817f27bc4c437fa4cdf0aba5d468cafaedc3da6bcd678b8453a19c6d6ebd579c16893383604051808373ffffffffffffffffffffffffffffffffffffffff1673ffffffffffffffffffffffffffffffffffffffff16815260200180602001828103825283818151815260200191508051906020019080838360005b83811015610d50578082015181840152602081019050610d35565b50505050905090810190601f168015610d7d5780820380516001836020036101000a031916815260200191505b50935050505060405180910390a25050565b6000600160008054815260200190815260200160002090506000548160000181905550338160010160006101000a81548173ffffffffffffffffffffffffffffffffffffffff021916908373ffffffffffffffffffffffffffffffffffffffff16021790555082816002019080519060200190610e0d9291906112cd565b5081816003019080519060200190610e269291906112cd565b506001600080828254019250508190555080600001547f8e5e29515b5a7e551c2f84ea506974d5cce047c4320c45524894c1490b959a3b3385604051808373ffffffffffffffffffffffffffffffffffffffff1673ffffffffffffffffffffffffffffffffffffffff16815260200180602001828103825283818151815260200191508051906020019080838360005b83811015610ed1578082015181840152602081019050610eb6565b50505050905090810190601f168015610efe5780820380516001836020036101000a031916815260200191505b50935050505060405180910390a2505050565b6000606080600073ffffffffffffffffffffffffffffffffffffffff166001600086815260200190815260200160002060010160009054906101000a900473ffffffffffffffffffffffffffffffffffffffff1673ffffffffffffffffffffffffffffffffffffffff161415610f8657600080fd5b6001600085815260200190815260200160002060010160009054906101000a900473ffffffffffffffffffffffffffffffffffffffff166001600086815260200190815260200160002060020160016000878152602001908152602001600020600301818054600181600116156101000203166002900480601f01602080910402602001604051908101604052809291908181526020018280546001816001161561010002031660029004801561107e5780601f106110535761010080835404028352916020019161107e565b820191906000526020600020905b81548152906001019060200180831161106157829003601f168201915b50505050509150808054600181600116156101000203166002900480601f01602080910402602001604051908101604052809291908181526020018280546001816001161561010002031660029004801561111a5780601f106110ef5761010080835404028352916020019161111a565b820191906000526020600020905b8154815290600101906020018083116110fd57829003601f168201915b505050505090509250925092509193909250565b6002602052806000526040600020600091509050806000018054600181600116156101000203166002900480601f0160208091040260200160405190810160405280929190818152602001828054600181600116156101000203166002900480156111da5780601f106111af576101008083540402835291602001916111da565b820191906000526020600020905b8154815290600101906020018083116111bd57829003601f168201915b5050505050905081565b828054600181600116156101000203166002900490600052602060002090601f016020900481019282601f1061122557805160ff1916838001178555611253565b82800160010185558215611253579182015b82811115611252578251825591602001919060010190611237565b5b509050611260919061134d565b5090565b50805460018160011615610100020316600290046000825580601f1061128a57506112a9565b601f0160209004906000526020600020908101906112a8919061134d565b5b50565b50805460008255906000526020600020908101906112ca919061134d565b50565b828054600181600116156101000203166002900490600052602060002090601f016020900481019282601f1061130e57805160ff191683800117855561133c565b8280016001018555821561133c579182015b8281111561133b578251825591602001919060010190611320565b5b509050611349919061134d565b5090565b61136f91905b8082111561136b576000816000905550600101611353565b5090565b9056fea265627a7a72315820cb82973c7c3ce12c6c7756f2719ba867e3c8c7ae4dcb169e6b7021959c41d19e64736f6c63430005100032",
  "source": "// SPDX-License-Identifier: MIT\npragma solidity >=0.4.21 <0.7.0;\n\n/// @title Another Job Board\n/// @author Caleb Tuttle\n/// @notice Post jobs and apply to jobs on the job board.\ncontract JobBoard {\n\n    struct JobPosting {\n        uint id;\n        address poster;\n        string title;\n        string description;\n        address[] applicants;\n    }\n\n    struct JobSeeker {\n        string linkedIn;\n        // TODO: add more??\n    }\n\n    /// @notice The number of jobs that have been posted\n    /// @dev Used to determine the id of a new JobPosting\n    uint public jobCount;\n\n    /// @dev Maps job id to JobPosting\n    mapping(uint => JobPosting) public jobPostings;\n\n    /// @dev Maps job seeker address to JobSeeker\n    mapping(address => JobSeeker) public jobSeekers;\n\n\n    /// @notice Log that a job has been posted\n    event PostJob(uint indexed jobId, address poster, string title);\n\n    /// @notice Log that a job has been removed\n    event RemoveJob(uint indexed jobId, address poster, string title);\n\n    /// @notice Log that a job seeker has registered\n    event RegisterJobSeeker(address indexed seeker);\n\n    /// @notice Log that a job seeker has applied to a job\n    event Apply(address applicant, uint jobId);\n\n\n    constructor() public {\n        jobCount = 1;\n    }\n\n    /// @notice Post a job to the job board\n    /// @param _title The job title\n    /// @param _description The job description\n    function postJob(string memory _title, string memory _description) public {\n        JobPosting storage newJob = jobPostings[jobCount];\n        newJob.id = jobCount;\n        newJob.poster = msg.sender;\n        newJob.title = _title;\n        newJob.description = _description;\n        \n        jobCount += 1;\n        emit PostJob(newJob.id, msg.sender, _title);\n    }\n\n    /// @notice Remove a job from the job board\n    /// @param jobId The id of the job to remove\n    function removeJob(uint jobId) public {\n        require(jobPostings[jobId].poster == msg.sender);\n        string memory title = jobPostings[jobId].title;\n        delete jobPostings[jobId];\n        emit RemoveJob(jobId, msg.sender, title);\n    }\n\n    /// @notice View the attributes of a job posting (except its applicants)\n    /// @param jobId The id of the job to view\n    function getJob(uint jobId) public view returns(\n        address poster,\n        string memory title,\n        string memory description\n        ) \n    {\n        require(jobPostings[jobId].poster != address(0));\n        return (\n            jobPostings[jobId].poster,\n            jobPostings[jobId].title,\n            jobPostings[jobId].description\n        );\n    }\n\n    /// @notice View the LinkedIn URLs of the applicants to a job\n    function viewApplicantLinkedIns(uint jobId) public view returns(address[] memory) {\n        require(jobPostings[jobId].poster != address(0));\n        return jobPostings[jobId].applicants;\n    }\n\n    /// @notice Apply to a job\n    /// @param jobId The job id of the job to apply to\n    function applyToJob(uint jobId, string memory _linkedIn) public {\n        require(jobPostings[jobId].poster != address(0));\n\n        // TODO: is there a better way to do this?\n        // JobPosting storage posting = jobPostings[jobId];\n        // for (uint i = 0; i < posting.applicants.length; i++) {\n        //     assert(posting.applicants[i] != msg.sender);\n        // }\n\n        jobPostings[jobId].applicants.push(msg.sender);\n        jobSeekers[msg.sender] = JobSeeker({\n            linkedIn: _linkedIn\n        });\n        emit Apply(msg.sender, jobId);\n    }\n\n}\n",
  "sourcePath": "/home/caleb/Desktop/myprograms/ConsenSysBootcampStuff/blockchain-developer-bootcamp-final-project/contracts/JobBoard.sol",
  "compiler": {
    "name": "solc",
    "version": "0.5.16+commit.9c3226ce.Emscripten.clang"
  },
  "schemaVersion": "3.4.3",
  "updatedAt": "2021-11-21T15:58:31.786Z",
  "networkType": "ethereum",
  "devdoc": {
    "author": "Caleb Tuttle",
    "methods": {
      "applyToJob(uint256,string)": {
        "params": {
          "jobId": "The job id of the job to apply to"
        }
      },
      "getJob(uint256)": {
        "params": {
          "jobId": "The id of the job to view"
        }
      },
      "postJob(string,string)": {
        "params": {
          "_description": "The job description",
          "_title": "The job title"
        }
      },
      "removeJob(uint256)": {
        "params": {
          "jobId": "The id of the job to remove"
        }
      }
    },
    "title": "Another Job Board"
  },
  "userdoc": {
    "methods": {
      "applyToJob(uint256,string)": {
        "notice": "Apply to a job"
      },
      "getJob(uint256)": {
        "notice": "View the attributes of a job posting (except its applicants)"
      },
      "postJob(string,string)": {
        "notice": "Post a job to the job board"
      },
      "removeJob(uint256)": {
        "notice": "Remove a job from the job board"
      },
      "viewApplicantLinkedIns(uint256)": {
        "notice": "View the LinkedIn URLs of the applicants to a job"
      }
    },
    "notice": "Post jobs and apply to jobs on the job board."
  }
}