{
  "contractName": "JobBoard",
  "abi": [
    {
      "inputs": [],
      "stateMutability": "nonpayable",
      "type": "constructor"
    },
    {
      "anonymous": false,
      "inputs": [
        {
          "indexed": false,
          "internalType": "address",
          "name": "applicant",
          "type": "address"
        },
        {
          "indexed": false,
          "internalType": "uint256",
          "name": "jobId",
          "type": "uint256"
        }
      ],
      "name": "Apply",
      "type": "event"
    },
    {
      "anonymous": false,
      "inputs": [
        {
          "indexed": true,
          "internalType": "address",
          "name": "previousOwner",
          "type": "address"
        },
        {
          "indexed": true,
          "internalType": "address",
          "name": "newOwner",
          "type": "address"
        }
      ],
      "name": "OwnershipTransferred",
      "type": "event"
    },
    {
      "anonymous": false,
      "inputs": [
        {
          "indexed": true,
          "internalType": "uint256",
          "name": "jobId",
          "type": "uint256"
        },
        {
          "indexed": false,
          "internalType": "address",
          "name": "poster",
          "type": "address"
        },
        {
          "indexed": false,
          "internalType": "string",
          "name": "title",
          "type": "string"
        }
      ],
      "name": "PostJob",
      "type": "event"
    },
    {
      "anonymous": false,
      "inputs": [
        {
          "indexed": true,
          "internalType": "address",
          "name": "seeker",
          "type": "address"
        }
      ],
      "name": "RegisterJobSeeker",
      "type": "event"
    },
    {
      "anonymous": false,
      "inputs": [
        {
          "indexed": true,
          "internalType": "uint256",
          "name": "jobId",
          "type": "uint256"
        },
        {
          "indexed": false,
          "internalType": "address",
          "name": "poster",
          "type": "address"
        },
        {
          "indexed": false,
          "internalType": "string",
          "name": "title",
          "type": "string"
        }
      ],
      "name": "RemoveJob",
      "type": "event"
    },
    {
      "inputs": [],
      "name": "jobCount",
      "outputs": [
        {
          "internalType": "uint256",
          "name": "",
          "type": "uint256"
        }
      ],
      "stateMutability": "view",
      "type": "function",
      "constant": true
    },
    {
      "inputs": [
        {
          "internalType": "uint256",
          "name": "",
          "type": "uint256"
        }
      ],
      "name": "jobPostings",
      "outputs": [
        {
          "internalType": "uint256",
          "name": "id",
          "type": "uint256"
        },
        {
          "internalType": "address",
          "name": "poster",
          "type": "address"
        },
        {
          "internalType": "string",
          "name": "title",
          "type": "string"
        },
        {
          "internalType": "string",
          "name": "description",
          "type": "string"
        }
      ],
      "stateMutability": "view",
      "type": "function",
      "constant": true
    },
    {
      "inputs": [
        {
          "internalType": "address",
          "name": "",
          "type": "address"
        }
      ],
      "name": "jobSeekers",
      "outputs": [
        {
          "internalType": "string",
          "name": "linkedIn",
          "type": "string"
        }
      ],
      "stateMutability": "view",
      "type": "function",
      "constant": true
    },
    {
      "inputs": [],
      "name": "owner",
      "outputs": [
        {
          "internalType": "address",
          "name": "",
          "type": "address"
        }
      ],
      "stateMutability": "view",
      "type": "function",
      "constant": true
    },
    {
      "inputs": [],
      "name": "renounceOwnership",
      "outputs": [],
      "stateMutability": "nonpayable",
      "type": "function"
    },
    {
      "inputs": [
        {
          "internalType": "address",
          "name": "newOwner",
          "type": "address"
        }
      ],
      "name": "transferOwnership",
      "outputs": [],
      "stateMutability": "nonpayable",
      "type": "function"
    },
    {
      "inputs": [
        {
          "internalType": "string",
          "name": "_title",
          "type": "string"
        },
        {
          "internalType": "string",
          "name": "_description",
          "type": "string"
        }
      ],
      "name": "postJob",
      "outputs": [],
      "stateMutability": "nonpayable",
      "type": "function"
    },
    {
      "inputs": [
        {
          "internalType": "uint256",
          "name": "jobId",
          "type": "uint256"
        }
      ],
      "name": "removeJob",
      "outputs": [],
      "stateMutability": "nonpayable",
      "type": "function"
    },
    {
      "inputs": [],
      "name": "removeAllJobs",
      "outputs": [],
      "stateMutability": "nonpayable",
      "type": "function"
    },
    {
      "inputs": [
        {
          "internalType": "uint256",
          "name": "jobId",
          "type": "uint256"
        }
      ],
      "name": "getJob",
      "outputs": [
        {
          "internalType": "address",
          "name": "poster",
          "type": "address"
        },
        {
          "internalType": "string",
          "name": "title",
          "type": "string"
        },
        {
          "internalType": "string",
          "name": "description",
          "type": "string"
        }
      ],
      "stateMutability": "view",
      "type": "function",
      "constant": true
    },
    {
      "inputs": [
        {
          "internalType": "uint256",
          "name": "jobId",
          "type": "uint256"
        }
      ],
      "name": "viewApplicantAddresses",
      "outputs": [
        {
          "internalType": "address[]",
          "name": "",
          "type": "address[]"
        }
      ],
      "stateMutability": "view",
      "type": "function",
      "constant": true
    },
    {
      "inputs": [
        {
          "internalType": "uint256",
          "name": "jobId",
          "type": "uint256"
        },
        {
          "internalType": "string",
          "name": "_linkedIn",
          "type": "string"
        }
      ],
      "name": "applyToJob",
      "outputs": [],
      "stateMutability": "nonpayable",
      "type": "function"
    }
  ],
  "bytecode": "0x608060405234801561001057600080fd5b5061002d61002261003960201b60201c565b61004160201b60201c565b60018081905550610105565b600033905090565b60008060009054906101000a900473ffffffffffffffffffffffffffffffffffffffff169050816000806101000a81548173ffffffffffffffffffffffffffffffffffffffff021916908373ffffffffffffffffffffffffffffffffffffffff1602179055508173ffffffffffffffffffffffffffffffffffffffff168173ffffffffffffffffffffffffffffffffffffffff167f8be0079c531659141344cd1fd0a4f28419497f9722a3daafe3b4186f6b6457e060405160405180910390a35050565b611812806101146000396000f3fe608060405234801561001057600080fd5b50600436106100b45760003560e01c80639cb29cbd116100715780639cb29cbd14610158578063a01e567614610174578063bf22c45714610190578063f2fde38b146101c2578063f6d43068146101de578063fafcfc551461020e576100b4565b80633efaea1f146100b95780634c5d8a0f146100d5578063622359b9146100f3578063715018a614610126578063778e308c146101305780638da5cb5b1461013a575b600080fd5b6100d360048036038101906100ce919061118a565b61023e565b005b6100dd6103d0565b6040516100ea919061149d565b60405180910390f35b61010d60048036038101906101089190611161565b6103d6565b60405161011d94939291906114b8565b60405180910390f35b61012e610536565b005b6101386105be565b005b6101426106d9565b60405161014f9190611360565b60405180910390f35b610172600480360381019061016d9190611161565b610702565b005b61018e600480360381019061018991906110f5565b6108c6565b005b6101aa60048036038101906101a59190611161565b6109bb565b6040516101b9939291906113ab565b60405180910390f35b6101dc60048036038101906101d791906110cc565b610bb8565b005b6101f860048036038101906101f391906110cc565b610cb0565b604051610205919061143b565b60405180910390f35b61022860048036038101906102239190611161565b610d56565b6040516102359190611419565b60405180910390f35b600073ffffffffffffffffffffffffffffffffffffffff166002600084815260200190815260200160002060010160009054906101000a900473ffffffffffffffffffffffffffffffffffffffff1673ffffffffffffffffffffffffffffffffffffffff1614156102ae57600080fd5b60026000838152602001908152602001600020600401339080600181540180825580915050600190039060005260206000200160009091909190916101000a81548173ffffffffffffffffffffffffffffffffffffffff021916908373ffffffffffffffffffffffffffffffffffffffff160217905550604051806020016040528082815250600360003373ffffffffffffffffffffffffffffffffffffffff1673ffffffffffffffffffffffffffffffffffffffff168152602001908152602001600020600082015181600001908051906020019061038f929190610f36565b509050507f59470163a7d3423114f115af31707633dd4930abac0f3662fc3c4ef323f39a8633836040516103c49291906113f0565b60405180910390a15050565b60015481565b60026020528060005260406000206000915090508060000154908060010160009054906101000a900473ffffffffffffffffffffffffffffffffffffffff169080600201805461042590611695565b80601f016020809104026020016040519081016040528092919081815260200182805461045190611695565b801561049e5780601f106104735761010080835404028352916020019161049e565b820191906000526020600020905b81548152906001019060200180831161048157829003601f168201915b5050505050908060030180546104b390611695565b80601f01602080910402602001604051908101604052809291908181526020018280546104df90611695565b801561052c5780601f106105015761010080835404028352916020019161052c565b820191906000526020600020905b81548152906001019060200180831161050f57829003601f168201915b5050505050905084565b61053e610e6a565b73ffffffffffffffffffffffffffffffffffffffff1661055c6106d9565b73ffffffffffffffffffffffffffffffffffffffff16146105b2576040517f08c379a00000000000000000000000000000000000000000000000000000000081526004016105a99061147d565b60405180910390fd5b6105bc6000610e72565b565b6105c6610e6a565b73ffffffffffffffffffffffffffffffffffffffff166105e46106d9565b73ffffffffffffffffffffffffffffffffffffffff161461063a576040517f08c379a00000000000000000000000000000000000000000000000000000000081526004016106319061147d565b60405180910390fd5b60005b6001548110156106cf57600260008281526020019081526020016000206000808201600090556001820160006101000a81549073ffffffffffffffffffffffffffffffffffffffff021916905560028201600061069a9190610fbc565b6003820160006106aa9190610fbc565b6004820160006106ba9190610ffc565b505080806106c7906116c7565b91505061063d565b5060018081905550565b60008060009054906101000a900473ffffffffffffffffffffffffffffffffffffffff16905090565b3373ffffffffffffffffffffffffffffffffffffffff166002600083815260200190815260200160002060010160009054906101000a900473ffffffffffffffffffffffffffffffffffffffff1673ffffffffffffffffffffffffffffffffffffffff161461077057600080fd5b600060026000838152602001908152602001600020600201805461079390611695565b80601f01602080910402602001604051908101604052809291908181526020018280546107bf90611695565b801561080c5780601f106107e15761010080835404028352916020019161080c565b820191906000526020600020905b8154815290600101906020018083116107ef57829003601f168201915b50505050509050600260008381526020019081526020016000206000808201600090556001820160006101000a81549073ffffffffffffffffffffffffffffffffffffffff02191690556002820160006108669190610fbc565b6003820160006108769190610fbc565b6004820160006108869190610ffc565b5050817f27bc4c437fa4cdf0aba5d468cafaedc3da6bcd678b8453a19c6d6ebd579c168933836040516108ba92919061137b565b60405180910390a25050565b600060026000600154815260200190815260200160002090506001548160000181905550338160010160006101000a81548173ffffffffffffffffffffffffffffffffffffffff021916908373ffffffffffffffffffffffffffffffffffffffff16021790555082816002019080519060200190610945929190610f36565b508181600301908051906020019061095e929190610f36565b50600180600082825461097191906115c1565b9250508190555080600001547f8e5e29515b5a7e551c2f84ea506974d5cce047c4320c45524894c1490b959a3b33856040516109ae92919061137b565b60405180910390a2505050565b6000606080600073ffffffffffffffffffffffffffffffffffffffff166002600086815260200190815260200160002060010160009054906101000a900473ffffffffffffffffffffffffffffffffffffffff1673ffffffffffffffffffffffffffffffffffffffff161415610a3057600080fd5b6002600085815260200190815260200160002060010160009054906101000a900473ffffffffffffffffffffffffffffffffffffffff166002600086815260200190815260200160002060020160026000878152602001908152602001600020600301818054610a9f90611695565b80601f0160208091040260200160405190810160405280929190818152602001828054610acb90611695565b8015610b185780601f10610aed57610100808354040283529160200191610b18565b820191906000526020600020905b815481529060010190602001808311610afb57829003601f168201915b50505050509150808054610b2b90611695565b80601f0160208091040260200160405190810160405280929190818152602001828054610b5790611695565b8015610ba45780601f10610b7957610100808354040283529160200191610ba4565b820191906000526020600020905b815481529060010190602001808311610b8757829003601f168201915b505050505090509250925092509193909250565b610bc0610e6a565b73ffffffffffffffffffffffffffffffffffffffff16610bde6106d9565b73ffffffffffffffffffffffffffffffffffffffff1614610c34576040517f08c379a0000000000000000000000000000000000000000000000000000000008152600401610c2b9061147d565b60405180910390fd5b600073ffffffffffffffffffffffffffffffffffffffff168173ffffffffffffffffffffffffffffffffffffffff161415610ca4576040517f08c379a0000000000000000000000000000000000000000000000000000000008152600401610c9b9061145d565b60405180910390fd5b610cad81610e72565b50565b6003602052806000526040600020600091509050806000018054610cd390611695565b80601f0160208091040260200160405190810160405280929190818152602001828054610cff90611695565b8015610d4c5780601f10610d2157610100808354040283529160200191610d4c565b820191906000526020600020905b815481529060010190602001808311610d2f57829003601f168201915b5050505050905081565b6060600073ffffffffffffffffffffffffffffffffffffffff166002600084815260200190815260200160002060010160009054906101000a900473ffffffffffffffffffffffffffffffffffffffff1673ffffffffffffffffffffffffffffffffffffffff161415610dc857600080fd5b60026000838152602001908152602001600020600401805480602002602001604051908101604052809291908181526020018280548015610e5e57602002820191906000526020600020905b8160009054906101000a900473ffffffffffffffffffffffffffffffffffffffff1673ffffffffffffffffffffffffffffffffffffffff1681526020019060010190808311610e14575b50505050509050919050565b600033905090565b60008060009054906101000a900473ffffffffffffffffffffffffffffffffffffffff169050816000806101000a81548173ffffffffffffffffffffffffffffffffffffffff021916908373ffffffffffffffffffffffffffffffffffffffff1602179055508173ffffffffffffffffffffffffffffffffffffffff168173ffffffffffffffffffffffffffffffffffffffff167f8be0079c531659141344cd1fd0a4f28419497f9722a3daafe3b4186f6b6457e060405160405180910390a35050565b828054610f4290611695565b90600052602060002090601f016020900481019282610f645760008555610fab565b82601f10610f7d57805160ff1916838001178555610fab565b82800160010185558215610fab579182015b82811115610faa578251825591602001919060010190610f8f565b5b509050610fb8919061101d565b5090565b508054610fc890611695565b6000825580601f10610fda5750610ff9565b601f016020900490600052602060002090810190610ff8919061101d565b5b50565b508054600082559060005260206000209081019061101a919061101d565b50565b5b8082111561103657600081600090555060010161101e565b5090565b600061104d6110488461153c565b61150b565b90508281526020810184848401111561106557600080fd5b611070848285611653565b509392505050565b600081359050611087816117ae565b92915050565b600082601f83011261109e57600080fd5b81356110ae84826020860161103a565b91505092915050565b6000813590506110c6816117c5565b92915050565b6000602082840312156110de57600080fd5b60006110ec84828501611078565b91505092915050565b6000806040838503121561110857600080fd5b600083013567ffffffffffffffff81111561112257600080fd5b61112e8582860161108d565b925050602083013567ffffffffffffffff81111561114b57600080fd5b6111578582860161108d565b9150509250929050565b60006020828403121561117357600080fd5b6000611181848285016110b7565b91505092915050565b6000806040838503121561119d57600080fd5b60006111ab858286016110b7565b925050602083013567ffffffffffffffff8111156111c857600080fd5b6111d48582860161108d565b9150509250929050565b60006111ea83836111f6565b60208301905092915050565b6111ff81611617565b82525050565b61120e81611617565b82525050565b600061121f8261157c565b611229818561159f565b93506112348361156c565b8060005b8381101561126557815161124c88826111de565b975061125783611592565b925050600181019050611238565b5085935050505092915050565b600061127d82611587565b61128781856115b0565b9350611297818560208601611662565b6112a08161179d565b840191505092915050565b60006112b86026836115b0565b91507f4f776e61626c653a206e6577206f776e657220697320746865207a65726f206160008301527f64647265737300000000000000000000000000000000000000000000000000006020830152604082019050919050565b600061131e6020836115b0565b91507f4f776e61626c653a2063616c6c6572206973206e6f7420746865206f776e65726000830152602082019050919050565b61135a81611649565b82525050565b60006020820190506113756000830184611205565b92915050565b60006040820190506113906000830185611205565b81810360208301526113a28184611272565b90509392505050565b60006060820190506113c06000830186611205565b81810360208301526113d28185611272565b905081810360408301526113e68184611272565b9050949350505050565b60006040820190506114056000830185611205565b6114126020830184611351565b9392505050565b600060208201905081810360008301526114338184611214565b905092915050565b600060208201905081810360008301526114558184611272565b905092915050565b60006020820190508181036000830152611476816112ab565b9050919050565b6000602082019050818103600083015261149681611311565b9050919050565b60006020820190506114b26000830184611351565b92915050565b60006080820190506114cd6000830187611351565b6114da6020830186611205565b81810360408301526114ec8185611272565b905081810360608301526115008184611272565b905095945050505050565b6000604051905081810181811067ffffffffffffffff821117156115325761153161176e565b5b8060405250919050565b600067ffffffffffffffff8211156115575761155661176e565b5b601f19601f8301169050602081019050919050565b6000819050602082019050919050565b600081519050919050565b600081519050919050565b6000602082019050919050565b600082825260208201905092915050565b600082825260208201905092915050565b60006115cc82611649565b91506115d783611649565b9250827fffffffffffffffffffffffffffffffffffffffffffffffffffffffffffffffff0382111561160c5761160b611710565b5b828201905092915050565b600061162282611629565b9050919050565b600073ffffffffffffffffffffffffffffffffffffffff82169050919050565b6000819050919050565b82818337600083830152505050565b60005b83811015611680578082015181840152602081019050611665565b8381111561168f576000848401525b50505050565b600060028204905060018216806116ad57607f821691505b602082108114156116c1576116c061173f565b5b50919050565b60006116d282611649565b91507fffffffffffffffffffffffffffffffffffffffffffffffffffffffffffffffff82141561170557611704611710565b5b600182019050919050565b7f4e487b7100000000000000000000000000000000000000000000000000000000600052601160045260246000fd5b7f4e487b7100000000000000000000000000000000000000000000000000000000600052602260045260246000fd5b7f4e487b7100000000000000000000000000000000000000000000000000000000600052604160045260246000fd5b6000601f19601f8301169050919050565b6117b781611617565b81146117c257600080fd5b50565b6117ce81611649565b81146117d957600080fd5b5056fea26469706673582212207590a90da0b2e77074f519646cb8747fff7bcaf41df677f7adee8e84f486af5d64736f6c63430008000033",
  "immutableReferences": {},
  "source": "// SPDX-License-Identifier: MIT\n// pragma solidity >=0.4.21 <0.7.0;\npragma solidity ^0.8.0;\n\nimport \"@openzeppelin/contracts/access/Ownable.sol\";\n\n/// @title Another Job Board\n/// @author Caleb Tuttle\n/// @notice Post jobs and apply to jobs on the job board.\ncontract JobBoard is Ownable {\n\n    struct JobPosting {\n        uint id;\n        address poster;\n        string title;\n        string description;\n        address[] applicants;\n    }\n\n    struct JobSeeker {\n        string linkedIn;\n        // TODO: add more??\n    }\n\n    /// @notice The number of jobs that have been posted\n    /// @dev Used to determine the id of a new JobPosting\n    uint public jobCount;\n\n    /// @dev Maps job id to JobPosting\n    mapping(uint => JobPosting) public jobPostings;\n\n    /// @dev Maps job seeker address to JobSeeker\n    mapping(address => JobSeeker) public jobSeekers;\n\n\n    /// @notice Log that a job has been posted\n    event PostJob(uint indexed jobId, address poster, string title);\n\n    /// @notice Log that a job has been removed\n    event RemoveJob(uint indexed jobId, address poster, string title);\n\n    /// @notice Log that a job seeker has registered\n    event RegisterJobSeeker(address indexed seeker);\n\n    /// @notice Log that a job seeker has applied to a job\n    event Apply(address applicant, uint jobId);\n\n\n    constructor() {\n        jobCount = 1;\n    }\n\n    /// @notice Post a job to the job board\n    /// @param _title The job title\n    /// @param _description The job description\n    function postJob(string memory _title, string memory _description) public {\n        JobPosting storage newJob = jobPostings[jobCount];\n        newJob.id = jobCount;\n        newJob.poster = msg.sender;\n        newJob.title = _title;\n        newJob.description = _description;\n        \n        jobCount += 1;\n        emit PostJob(newJob.id, msg.sender, _title);\n    }\n\n    /// @notice Remove a job from the job board\n    /// @param jobId The id of the job to remove\n    function removeJob(uint jobId) public {\n        require(jobPostings[jobId].poster == msg.sender);\n        string memory title = jobPostings[jobId].title;\n        delete jobPostings[jobId];\n        emit RemoveJob(jobId, msg.sender, title);\n    }\n\n    /// @notice Remove all jobs from the job board\n    function removeAllJobs() public onlyOwner {\n        for (uint i = 0; i < jobCount; i++) {\n            delete jobPostings[i];\n        }\n        jobCount = 1;\n    }\n\n    /// @notice View the attributes of a job posting (except its applicants)\n    /// @param jobId The id of the job to view\n    function getJob(uint jobId) public view returns(\n        address poster,\n        string memory title,\n        string memory description\n        ) \n    {\n        require(jobPostings[jobId].poster != address(0));\n        return (\n            jobPostings[jobId].poster,\n            jobPostings[jobId].title,\n            jobPostings[jobId].description\n        );\n    }\n\n    /// @notice View the eth addresses of the applicants to a job\n    function viewApplicantAddresses(uint jobId) public view returns(address[] memory) {\n        require(jobPostings[jobId].poster != address(0));\n        return jobPostings[jobId].applicants;\n    }\n\n    /// @notice Apply to a job\n    /// @param jobId The job id of the job to apply to\n    function applyToJob(uint jobId, string memory _linkedIn) public {\n        require(jobPostings[jobId].poster != address(0));\n\n        // TODO: is there a better way to do this?\n        // JobPosting storage posting = jobPostings[jobId];\n        // for (uint i = 0; i < posting.applicants.length; i++) {\n        //     assert(posting.applicants[i] != msg.sender);\n        // }\n\n        jobPostings[jobId].applicants.push(msg.sender);\n        jobSeekers[msg.sender] = JobSeeker({\n            linkedIn: _linkedIn\n        });\n        emit Apply(msg.sender, jobId);\n    }\n\n}\n",
  "sourcePath": "/home/caleb/Desktop/myprograms/ConsenSysBootcampStuff/blockchain-developer-bootcamp-final-project/contracts/JobBoard.sol",
  "compiler": {
    "name": "solc",
    "version": "0.8.0+commit.c7dfd78e.Emscripten.clang"
  },
  "schemaVersion": "3.4.3",
  "updatedAt": "2021-11-24T18:52:48.820Z",
  "networkType": "ethereum",
  "devdoc": {
    "author": "Caleb Tuttle",
    "kind": "dev",
    "methods": {
      "applyToJob(uint256,string)": {
        "params": {
          "jobId": "The job id of the job to apply to"
        }
      },
      "getJob(uint256)": {
        "params": {
          "jobId": "The id of the job to view"
        }
      },
      "owner()": {
        "details": "Returns the address of the current owner."
      },
      "postJob(string,string)": {
        "params": {
          "_description": "The job description",
          "_title": "The job title"
        }
      },
      "removeJob(uint256)": {
        "params": {
          "jobId": "The id of the job to remove"
        }
      },
      "renounceOwnership()": {
        "details": "Leaves the contract without owner. It will not be possible to call `onlyOwner` functions anymore. Can only be called by the current owner. NOTE: Renouncing ownership will leave the contract without an owner, thereby removing any functionality that is only available to the owner."
      },
      "transferOwnership(address)": {
        "details": "Transfers ownership of the contract to a new account (`newOwner`). Can only be called by the current owner."
      }
    },
    "stateVariables": {
      "jobCount": {
        "details": "Used to determine the id of a new JobPosting"
      },
      "jobPostings": {
        "details": "Maps job id to JobPosting"
      },
      "jobSeekers": {
        "details": "Maps job seeker address to JobSeeker"
      }
    },
    "title": "Another Job Board",
    "version": 1
  },
  "userdoc": {
    "events": {
      "Apply(address,uint256)": {
        "notice": "Log that a job seeker has applied to a job"
      },
      "PostJob(uint256,address,string)": {
        "notice": "Log that a job has been posted"
      },
      "RegisterJobSeeker(address)": {
        "notice": "Log that a job seeker has registered"
      },
      "RemoveJob(uint256,address,string)": {
        "notice": "Log that a job has been removed"
      }
    },
    "kind": "user",
    "methods": {
      "applyToJob(uint256,string)": {
        "notice": "Apply to a job"
      },
      "getJob(uint256)": {
        "notice": "View the attributes of a job posting (except its applicants)"
      },
      "jobCount()": {
        "notice": "The number of jobs that have been posted"
      },
      "postJob(string,string)": {
        "notice": "Post a job to the job board"
      },
      "removeAllJobs()": {
        "notice": "Remove all jobs from the job board"
      },
      "removeJob(uint256)": {
        "notice": "Remove a job from the job board"
      },
      "viewApplicantAddresses(uint256)": {
        "notice": "View the eth addresses of the applicants to a job"
      }
    },
    "notice": "Post jobs and apply to jobs on the job board.",
    "version": 1
  }
}