{
  "contractName": "JobBoard",
  "abi": [
    {
      "inputs": [],
      "payable": false,
      "stateMutability": "nonpayable",
      "type": "constructor"
    },
    {
      "anonymous": false,
      "inputs": [
        {
          "indexed": false,
          "internalType": "address",
          "name": "applicant",
          "type": "address"
        },
        {
          "indexed": false,
          "internalType": "uint256",
          "name": "jobId",
          "type": "uint256"
        }
      ],
      "name": "Apply",
      "type": "event"
    },
    {
      "anonymous": false,
      "inputs": [
        {
          "indexed": true,
          "internalType": "uint256",
          "name": "jobId",
          "type": "uint256"
        },
        {
          "indexed": false,
          "internalType": "address",
          "name": "poster",
          "type": "address"
        },
        {
          "indexed": false,
          "internalType": "string",
          "name": "title",
          "type": "string"
        }
      ],
      "name": "PostJob",
      "type": "event"
    },
    {
      "anonymous": false,
      "inputs": [
        {
          "indexed": true,
          "internalType": "address",
          "name": "seeker",
          "type": "address"
        }
      ],
      "name": "RegisterJobSeeker",
      "type": "event"
    },
    {
      "anonymous": false,
      "inputs": [
        {
          "indexed": true,
          "internalType": "uint256",
          "name": "jobId",
          "type": "uint256"
        },
        {
          "indexed": false,
          "internalType": "address",
          "name": "poster",
          "type": "address"
        },
        {
          "indexed": false,
          "internalType": "string",
          "name": "title",
          "type": "string"
        }
      ],
      "name": "RemoveJob",
      "type": "event"
    },
    {
      "constant": true,
      "inputs": [],
      "name": "jobCount",
      "outputs": [
        {
          "internalType": "uint256",
          "name": "",
          "type": "uint256"
        }
      ],
      "payable": false,
      "stateMutability": "view",
      "type": "function"
    },
    {
      "constant": true,
      "inputs": [
        {
          "internalType": "uint256",
          "name": "",
          "type": "uint256"
        }
      ],
      "name": "jobPostings",
      "outputs": [
        {
          "internalType": "uint256",
          "name": "id",
          "type": "uint256"
        },
        {
          "internalType": "address",
          "name": "poster",
          "type": "address"
        },
        {
          "internalType": "string",
          "name": "title",
          "type": "string"
        },
        {
          "internalType": "string",
          "name": "description",
          "type": "string"
        }
      ],
      "payable": false,
      "stateMutability": "view",
      "type": "function"
    },
    {
      "constant": true,
      "inputs": [
        {
          "internalType": "address",
          "name": "",
          "type": "address"
        }
      ],
      "name": "jobSeekers",
      "outputs": [
        {
          "internalType": "string",
          "name": "linkedIn",
          "type": "string"
        }
      ],
      "payable": false,
      "stateMutability": "view",
      "type": "function"
    },
    {
      "constant": false,
      "inputs": [
        {
          "internalType": "string",
          "name": "_title",
          "type": "string"
        },
        {
          "internalType": "string",
          "name": "_description",
          "type": "string"
        }
      ],
      "name": "postJob",
      "outputs": [],
      "payable": false,
      "stateMutability": "nonpayable",
      "type": "function"
    },
    {
      "constant": false,
      "inputs": [
        {
          "internalType": "uint256",
          "name": "jobId",
          "type": "uint256"
        }
      ],
      "name": "removeJob",
      "outputs": [],
      "payable": false,
      "stateMutability": "nonpayable",
      "type": "function"
    },
    {
      "constant": true,
      "inputs": [
        {
          "internalType": "uint256",
          "name": "jobId",
          "type": "uint256"
        }
      ],
      "name": "getJob",
      "outputs": [
        {
          "internalType": "address",
          "name": "poster",
          "type": "address"
        },
        {
          "internalType": "string",
          "name": "title",
          "type": "string"
        },
        {
          "internalType": "string",
          "name": "description",
          "type": "string"
        }
      ],
      "payable": false,
      "stateMutability": "view",
      "type": "function"
    },
    {
      "constant": true,
      "inputs": [
        {
          "internalType": "uint256",
          "name": "jobId",
          "type": "uint256"
        }
      ],
      "name": "viewApplicantLinkedIns",
      "outputs": [
        {
          "internalType": "address[]",
          "name": "",
          "type": "address[]"
        }
      ],
      "payable": false,
      "stateMutability": "view",
      "type": "function"
    },
    {
      "constant": false,
      "inputs": [
        {
          "internalType": "string",
          "name": "_linkedIn",
          "type": "string"
        }
      ],
      "name": "registerAsSeeker",
      "outputs": [],
      "payable": false,
      "stateMutability": "nonpayable",
      "type": "function"
    },
    {
      "constant": false,
      "inputs": [
        {
          "internalType": "uint256",
          "name": "jobId",
          "type": "uint256"
        }
      ],
      "name": "applyToJob",
      "outputs": [],
      "payable": false,
      "stateMutability": "nonpayable",
      "type": "function"
    }
  ],
  "bytecode": "0x608060405234801561001057600080fd5b5060016000819055506115bb806100286000396000f3fe608060405234801561001057600080fd5b50600436106100935760003560e01c80638e1a32d0116100665780638e1a32d0146103415780639cb29cbd1461036f578063a01e56761461039d578063bf22c457146104ef578063f6d430681461063557610093565b80634c5d8a0f14610098578063622359b9146100b65780637f94837f1461020357806381ee3b94146102be575b600080fd5b6100a06106f2565b6040518082815260200191505060405180910390f35b6100e2600480360360208110156100cc57600080fd5b81019080803590602001909291905050506106f8565b604051808581526020018473ffffffffffffffffffffffffffffffffffffffff1673ffffffffffffffffffffffffffffffffffffffff1681526020018060200180602001838103835285818151815260200191508051906020019080838360005b8381101561015e578082015181840152602081019050610143565b50505050905090810190601f16801561018b5780820380516001836020036101000a031916815260200191505b50838103825284818151815260200191508051906020019080838360005b838110156101c45780820151818401526020810190506101a9565b50505050905090810190601f1680156101f15780820380516001836020036101000a031916815260200191505b50965050505050505060405180910390f35b6102bc6004803603602081101561021957600080fd5b810190808035906020019064010000000081111561023657600080fd5b82018360208201111561024857600080fd5b8035906020019184600183028401116401000000008311171561026a57600080fd5b91908080601f016020809104026020016040519081016040528093929190818152602001838380828437600081840152601f19601f820116905080830192505050505050509192919290505050610878565b005b6102ea600480360360208110156102d457600080fd5b8101908080359060200190929190505050610956565b6040518080602001828103825283818151815260200191508051906020019060200280838360005b8381101561032d578082015181840152602081019050610312565b505050509050019250505060405180910390f35b61036d6004803603602081101561035757600080fd5b8101908080359060200190929190505050610a6a565b005b61039b6004803603602081101561038557600080fd5b8101908080359060200190929190505050610d38565b005b6104ed600480360360408110156103b357600080fd5b81019080803590602001906401000000008111156103d057600080fd5b8201836020820111156103e257600080fd5b8035906020019184600183028401116401000000008311171561040457600080fd5b91908080601f016020809104026020016040519081016040528093929190818152602001838380828437600081840152601f19601f8201169050808301925050505050505091929192908035906020019064010000000081111561046757600080fd5b82018360208201111561047957600080fd5b8035906020019184600183028401116401000000008311171561049b57600080fd5b91908080601f016020809104026020016040519081016040528093929190818152602001838380828437600081840152601f19601f820116905080830192505050505050509192919290505050610fa3565b005b61051b6004803603602081101561050557600080fd5b8101908080359060200190929190505050611125565b604051808473ffffffffffffffffffffffffffffffffffffffff1673ffffffffffffffffffffffffffffffffffffffff1681526020018060200180602001838103835285818151815260200191508051906020019080838360005b83811015610591578082015181840152602081019050610576565b50505050905090810190601f1680156105be5780820380516001836020036101000a031916815260200191505b50838103825284818151815260200191508051906020019080838360005b838110156105f75780820151818401526020810190506105dc565b50505050905090810190601f1680156106245780820380516001836020036101000a031916815260200191505b509550505050505060405180910390f35b6106776004803603602081101561064b57600080fd5b81019080803573ffffffffffffffffffffffffffffffffffffffff169060200190929190505050611342565b6040518080602001828103825283818151815260200191508051906020019080838360005b838110156106b757808201518184015260208101905061069c565b50505050905090810190601f1680156106e45780820380516001836020036101000a031916815260200191505b509250505060405180910390f35b60005481565b60016020528060005260406000206000915090508060000154908060010160009054906101000a900473ffffffffffffffffffffffffffffffffffffffff1690806002018054600181600116156101000203166002900480601f0160208091040260200160405190810160405280929190818152602001828054600181600116156101000203166002900480156107d05780601f106107a5576101008083540402835291602001916107d0565b820191906000526020600020905b8154815290600101906020018083116107b357829003601f168201915b505050505090806003018054600181600116156101000203166002900480601f01602080910402602001604051908101604052809291908181526020018280546001816001161561010002031660029004801561086e5780601f106108435761010080835404028352916020019161086e565b820191906000526020600020905b81548152906001019060200180831161085157829003601f168201915b5050505050905084565b6040518060200160405280600081525080519060200120818051906020012014156108a257600080fd5b604051806020016040528082815250600260003373ffffffffffffffffffffffffffffffffffffffff1673ffffffffffffffffffffffffffffffffffffffff168152602001908152602001600020600082015181600001908051906020019061090c9291906113f8565b509050503373ffffffffffffffffffffffffffffffffffffffff167fbd91813e994da8b6c00bab390f14ad6063fe97552be2a7537e2c13e2da5bdbdf60405160405180910390a250565b6060600073ffffffffffffffffffffffffffffffffffffffff166001600084815260200190815260200160002060010160009054906101000a900473ffffffffffffffffffffffffffffffffffffffff1673ffffffffffffffffffffffffffffffffffffffff1614156109c857600080fd5b60016000838152602001908152602001600020600401805480602002602001604051908101604052809291908181526020018280548015610a5e57602002820191906000526020600020905b8160009054906101000a900473ffffffffffffffffffffffffffffffffffffffff1673ffffffffffffffffffffffffffffffffffffffff1681526020019060010190808311610a14575b50505050509050919050565b600073ffffffffffffffffffffffffffffffffffffffff166001600083815260200190815260200160002060010160009054906101000a900473ffffffffffffffffffffffffffffffffffffffff1673ffffffffffffffffffffffffffffffffffffffff161415610ada57600080fd5b6040518060200160405280600081525080519060200120600260003373ffffffffffffffffffffffffffffffffffffffff1673ffffffffffffffffffffffffffffffffffffffff1681526020019081526020016000206000016040518082805460018160011615610100020316600290048015610b8e5780601f10610b6c576101008083540402835291820191610b8e565b820191906000526020600020905b815481529060010190602001808311610b7a575b505091505060405180910390201415610ba657600080fd5b600060016000838152602001908152602001600020905060008090505b8160040180549050811015610c4e573373ffffffffffffffffffffffffffffffffffffffff16826004018281548110610bf857fe5b9060005260206000200160009054906101000a900473ffffffffffffffffffffffffffffffffffffffff1673ffffffffffffffffffffffffffffffffffffffff161415610c4157fe5b8080600101915050610bc3565b50600160008381526020019081526020016000206004013390806001815401808255809150509060018203906000526020600020016000909192909190916101000a81548173ffffffffffffffffffffffffffffffffffffffff021916908373ffffffffffffffffffffffffffffffffffffffff160217905550507f59470163a7d3423114f115af31707633dd4930abac0f3662fc3c4ef323f39a863383604051808373ffffffffffffffffffffffffffffffffffffffff1673ffffffffffffffffffffffffffffffffffffffff1681526020018281526020019250505060405180910390a15050565b3373ffffffffffffffffffffffffffffffffffffffff166001600083815260200190815260200160002060010160009054906101000a900473ffffffffffffffffffffffffffffffffffffffff1673ffffffffffffffffffffffffffffffffffffffff1614610da657600080fd5b6060600160008381526020019081526020016000206002018054600181600116156101000203166002900480601f016020809104026020016040519081016040528092919081815260200182805460018160011615610100020316600290048015610e525780601f10610e2757610100808354040283529160200191610e52565b820191906000526020600020905b815481529060010190602001808311610e3557829003601f168201915b50505050509050600160008381526020019081526020016000206000808201600090556001820160006101000a81549073ffffffffffffffffffffffffffffffffffffffff0219169055600282016000610eac9190611478565b600382016000610ebc9190611478565b600482016000610ecc91906114c0565b5050817f27bc4c437fa4cdf0aba5d468cafaedc3da6bcd678b8453a19c6d6ebd579c16893383604051808373ffffffffffffffffffffffffffffffffffffffff1673ffffffffffffffffffffffffffffffffffffffff16815260200180602001828103825283818151815260200191508051906020019080838360005b83811015610f64578082015181840152602081019050610f49565b50505050905090810190601f168015610f915780820380516001836020036101000a031916815260200191505b50935050505060405180910390a25050565b6000600160008054815260200190815260200160002090506000548160000181905550338160010160006101000a81548173ffffffffffffffffffffffffffffffffffffffff021916908373ffffffffffffffffffffffffffffffffffffffff160217905550828160020190805190602001906110219291906114e1565b508181600301908051906020019061103a9291906114e1565b506001600080828254019250508190555080600001547f8e5e29515b5a7e551c2f84ea506974d5cce047c4320c45524894c1490b959a3b3385604051808373ffffffffffffffffffffffffffffffffffffffff1673ffffffffffffffffffffffffffffffffffffffff16815260200180602001828103825283818151815260200191508051906020019080838360005b838110156110e55780820151818401526020810190506110ca565b50505050905090810190601f1680156111125780820380516001836020036101000a031916815260200191505b50935050505060405180910390a2505050565b6000606080600073ffffffffffffffffffffffffffffffffffffffff166001600086815260200190815260200160002060010160009054906101000a900473ffffffffffffffffffffffffffffffffffffffff1673ffffffffffffffffffffffffffffffffffffffff16141561119a57600080fd5b6001600085815260200190815260200160002060010160009054906101000a900473ffffffffffffffffffffffffffffffffffffffff166001600086815260200190815260200160002060020160016000878152602001908152602001600020600301818054600181600116156101000203166002900480601f0160208091040260200160405190810160405280929190818152602001828054600181600116156101000203166002900480156112925780601f1061126757610100808354040283529160200191611292565b820191906000526020600020905b81548152906001019060200180831161127557829003601f168201915b50505050509150808054600181600116156101000203166002900480601f01602080910402602001604051908101604052809291908181526020018280546001816001161561010002031660029004801561132e5780601f106113035761010080835404028352916020019161132e565b820191906000526020600020905b81548152906001019060200180831161131157829003601f168201915b505050505090509250925092509193909250565b6002602052806000526040600020600091509050806000018054600181600116156101000203166002900480601f0160208091040260200160405190810160405280929190818152602001828054600181600116156101000203166002900480156113ee5780601f106113c3576101008083540402835291602001916113ee565b820191906000526020600020905b8154815290600101906020018083116113d157829003601f168201915b5050505050905081565b828054600181600116156101000203166002900490600052602060002090601f016020900481019282601f1061143957805160ff1916838001178555611467565b82800160010185558215611467579182015b8281111561146657825182559160200191906001019061144b565b5b5090506114749190611561565b5090565b50805460018160011615610100020316600290046000825580601f1061149e57506114bd565b601f0160209004906000526020600020908101906114bc9190611561565b5b50565b50805460008255906000526020600020908101906114de9190611561565b50565b828054600181600116156101000203166002900490600052602060002090601f016020900481019282601f1061152257805160ff1916838001178555611550565b82800160010185558215611550579182015b8281111561154f578251825591602001919060010190611534565b5b50905061155d9190611561565b5090565b61158391905b8082111561157f576000816000905550600101611567565b5090565b9056fea265627a7a72315820236ca641129fec6884677c77b7880aed1a598aff041f7c260851a091304fd2bd64736f6c63430005100032",
  "source": "// SPDX-License-Identifier: MIT\npragma solidity >=0.4.21 <0.7.0;\n\n/// @title Another Job Board\n/// @author Caleb Tuttle\n/// @notice Post jobs and apply to jobs on the job board.\ncontract JobBoard {\n\n    struct JobPosting {\n        uint id;\n        address poster;\n        string title;\n        string description;\n        address[] applicants;\n    }\n\n    struct JobSeeker {\n        string linkedIn;\n        // TODO: add more??\n    }\n\n    /// @notice The number of jobs that have been posted\n    /// @dev Used to determine the id of a new JobPosting\n    uint public jobCount;\n\n    /// @dev Maps job id to JobPosting\n    mapping(uint => JobPosting) public jobPostings;\n\n    /// @dev Maps job seeker address to JobSeeker\n    mapping(address => JobSeeker) public jobSeekers;\n\n\n    /// @notice Log that a job has been posted\n    event PostJob(uint indexed jobId, address poster, string title);\n\n    /// @notice Log that a job has been removed\n    event RemoveJob(uint indexed jobId, address poster, string title);\n\n    /// @notice Log that a job seeker has registered\n    event RegisterJobSeeker(address indexed seeker);\n\n    /// @notice Log that a job seeker has applied to a job\n    event Apply(address applicant, uint jobId);\n\n\n    constructor() public {\n        jobCount = 1;\n    }\n\n    /// @notice Post a job to the job board\n    /// @param _title The job title\n    /// @param _description The job description\n    function postJob(string memory _title, string memory _description) public {\n        JobPosting storage newJob = jobPostings[jobCount];\n        newJob.id = jobCount;\n        newJob.poster = msg.sender;\n        newJob.title = _title;\n        newJob.description = _description;\n        \n        jobCount += 1;\n        emit PostJob(newJob.id, msg.sender, _title);\n    }\n\n    /// @notice Remove a job from the job board\n    /// @param jobId The id of the job to remove\n    function removeJob(uint jobId) public {\n        require(jobPostings[jobId].poster == msg.sender);\n        string memory title = jobPostings[jobId].title;\n        delete jobPostings[jobId];\n        emit RemoveJob(jobId, msg.sender, title);\n    }\n\n    /// @notice View the attributes of a job posting (except its applicants)\n    /// @param jobId The id of the job to view\n    function getJob(uint jobId) public view returns(\n        address poster,\n        string memory title,\n        string memory description\n        ) \n    {\n        require(jobPostings[jobId].poster != address(0));\n        return (\n            jobPostings[jobId].poster, \n            jobPostings[jobId].title, \n            jobPostings[jobId].description\n        );\n    }\n\n    /// @notice View the LinkedIn URLs of the applicants to a job\n    function viewApplicantLinkedIns(uint jobId) public view returns(address[] memory) {\n        require(jobPostings[jobId].poster != address(0));\n        return jobPostings[jobId].applicants;\n    }\n    \n    /// @notice Register as a job seeker\n    /// @param _linkedIn The URL of the job seeker's LinkedIn\n    function registerAsSeeker(string memory _linkedIn) public {\n        require(keccak256(bytes(_linkedIn)) != keccak256(bytes(\"\")));\n        jobSeekers[msg.sender] = JobSeeker({\n            linkedIn: _linkedIn\n        });\n        emit RegisterJobSeeker(msg.sender);\n    }\n\n    /// @notice Apply to a job\n    /// @param jobId The job id of the job to apply to\n    function applyToJob(uint jobId) public {\n        require(jobPostings[jobId].poster != address(0));\n        require(keccak256(bytes(jobSeekers[msg.sender].linkedIn)) != keccak256(bytes(\"\")));\n\n        // TODO: is there a better way to do this?\n        JobPosting storage posting = jobPostings[jobId];\n        for (uint i = 0; i < posting.applicants.length; i++) {\n            assert(posting.applicants[i] != msg.sender);\n        }\n\n        jobPostings[jobId].applicants.push(msg.sender);\n        emit Apply(msg.sender, jobId);\n    }\n\n}\n",
  "sourcePath": "/home/caleb/Desktop/myprograms/ConsenSysBootcampStuff/blockchain-developer-bootcamp-final-project/contracts/JobBoard.sol",
  "compiler": {
    "name": "solc",
    "version": "0.5.16+commit.9c3226ce.Emscripten.clang"
  },
  "schemaVersion": "3.4.3",
  "updatedAt": "2021-10-09T15:53:46.222Z",
  "networkType": "ethereum",
  "devdoc": {
    "author": "Caleb Tuttle",
    "methods": {
      "applyToJob(uint256)": {
        "params": {
          "jobId": "The job id of the job to apply to"
        }
      },
      "getJob(uint256)": {
        "params": {
          "jobId": "The id of the job to view"
        }
      },
      "postJob(string,string)": {
        "params": {
          "_description": "The job description",
          "_title": "The job title"
        }
      },
      "registerAsSeeker(string)": {
        "params": {
          "_linkedIn": "The URL of the job seeker's LinkedIn"
        }
      },
      "removeJob(uint256)": {
        "params": {
          "jobId": "The id of the job to remove"
        }
      }
    },
    "title": "Another Job Board"
  },
  "userdoc": {
    "methods": {
      "applyToJob(uint256)": {
        "notice": "Apply to a job"
      },
      "getJob(uint256)": {
        "notice": "View the attributes of a job posting (except its applicants)"
      },
      "postJob(string,string)": {
        "notice": "Post a job to the job board"
      },
      "registerAsSeeker(string)": {
        "notice": "Register as a job seeker"
      },
      "removeJob(uint256)": {
        "notice": "Remove a job from the job board"
      },
      "viewApplicantLinkedIns(uint256)": {
        "notice": "View the LinkedIn URLs of the applicants to a job"
      }
    },
    "notice": "Post jobs and apply to jobs on the job board."
  }
}